{
  "contractName": "TokenBalanceRetriever",
  "abi": [
    {
      "inputs": [
        {
          "internalType": "address",
          "name": "account",
          "type": "address"
        },
        {
          "internalType": "address[]",
          "name": "tokens",
          "type": "address[]"
        }
      ],
      "name": "getBalances",
      "outputs": [
        {
          "components": [
            {
              "internalType": "address",
              "name": "token",
              "type": "address"
            },
            {
              "internalType": "uint256",
              "name": "balance",
              "type": "uint256"
            }
          ],
          "internalType": "struct TokenBalanceRetriever.Balance[]",
          "name": "",
          "type": "tuple[]"
        }
      ],
      "stateMutability": "view",
      "type": "function",
      "constant": true
    }
  ],
  "bytecode": "0x608060405234801561000f575f80fd5b506106138061001d5f395ff3fe608060405234801561000f575f80fd5b5060043610610029575f3560e01c80636a385ae91461002d575b5f80fd5b610047600480360381019061004291906102ee565b61005d565b6040516100549190610447565b60405180910390f35b60605f8383905067ffffffffffffffff81111561007d5761007c610467565b5b6040519080825280602002602001820160405280156100b657816020015b6100a36101fd565b81526020019060019003908161009b5790505b5090505f5b848490508110156101f1575f8585838181106100da576100d9610494565b5b90506020020160208101906100ef91906104c1565b90505f8173ffffffffffffffffffffffffffffffffffffffff166370a08231896040518263ffffffff1660e01b815260040161012b91906104fb565b602060405180830381865afa158015610146573d5f803e3d5ffd5b505050506040513d601f19601f8201168201806040525081019061016a919061053e565b9050604051806040016040528088888681811061018a57610189610494565b5b905060200201602081019061019f91906104c1565b73ffffffffffffffffffffffffffffffffffffffff168152602001828152508484815181106101d1576101d0610494565b5b6020026020010181905250505080806101e990610596565b9150506100bb565b50809150509392505050565b60405180604001604052805f73ffffffffffffffffffffffffffffffffffffffff1681526020015f81525090565b5f80fd5b5f80fd5b5f73ffffffffffffffffffffffffffffffffffffffff82169050919050565b5f61025c82610233565b9050919050565b61026c81610252565b8114610276575f80fd5b50565b5f8135905061028781610263565b92915050565b5f80fd5b5f80fd5b5f80fd5b5f8083601f8401126102ae576102ad61028d565b5b8235905067ffffffffffffffff8111156102cb576102ca610291565b5b6020830191508360208202830111156102e7576102e6610295565b5b9250929050565b5f805f604084860312156103055761030461022b565b5b5f61031286828701610279565b935050602084013567ffffffffffffffff8111156103335761033261022f565b5b61033f86828701610299565b92509250509250925092565b5f81519050919050565b5f82825260208201905092915050565b5f819050602082019050919050565b61037d81610252565b82525050565b5f819050919050565b61039581610383565b82525050565b604082015f8201516103af5f850182610374565b5060208201516103c2602085018261038c565b50505050565b5f6103d3838361039b565b60408301905092915050565b5f602082019050919050565b5f6103f58261034b565b6103ff8185610355565b935061040a83610365565b805f5b8381101561043a57815161042188826103c8565b975061042c836103df565b92505060018101905061040d565b5085935050505092915050565b5f6020820190508181035f83015261045f81846103eb565b905092915050565b7f4e487b71000000000000000000000000000000000000000000000000000000005f52604160045260245ffd5b7f4e487b71000000000000000000000000000000000000000000000000000000005f52603260045260245ffd5b5f602082840312156104d6576104d561022b565b5b5f6104e384828501610279565b91505092915050565b6104f581610252565b82525050565b5f60208201905061050e5f8301846104ec565b92915050565b61051d81610383565b8114610527575f80fd5b50565b5f8151905061053881610514565b92915050565b5f602082840312156105535761055261022b565b5b5f6105608482850161052a565b91505092915050565b7f4e487b71000000000000000000000000000000000000000000000000000000005f52601160045260245ffd5b5f6105a082610383565b91507fffffffffffffffffffffffffffffffffffffffffffffffffffffffffffffffff82036105d2576105d1610569565b5b60018201905091905056fea2646970667358221220bf92a5b799a21cb3ec26a544473ce296d2b7c1b041272a502b533cc066d3accf64736f6c63430008150033",
  "immutableReferences": {},
  "source": "// SPDX-License-Identifier: MIT\n\npragma solidity ^0.8.19;\n\ninterface IERC20 {\n    function balanceOf(address account) external view returns (uint256);\n}\n\ncontract TokenBalanceRetriever {\n    struct Balance {\n        address token;\n        uint256 balance;\n    }\n\n    function getBalances(\n        address account,\n        address[] calldata tokens\n    ) public view returns (Balance[] memory) {\n        Balance[] memory balances = new Balance[](tokens.length);\n\n        for (uint256 i = 0; i < tokens.length; i++) {\n            IERC20 token = IERC20(tokens[i]);\n            uint256 balance = token.balanceOf(account);\n            balances[i] = Balance(tokens[i], balance);\n        }\n\n        return balances;\n    }\n}\n",
  "sourcePath": "/Users/ardnep/Documents/undergrad/job-internships/take-home-test/switcheo/code-challenge/src/problem5/contracts/TokenBalanceRetriever.sol",
  "compiler": {
    "name": "solc",
    "version": "0.8.21+commit.d9974bed.Emscripten.clang"
  },
  "schemaVersion": "3.4.15",
  "updatedAt": "2023-08-10T04:59:19.638Z",
  "networkType": "ethereum",
  "devdoc": {
    "kind": "dev",
    "methods": {},
    "version": 1
  },
  "userdoc": {
    "kind": "user",
    "methods": {},
    "version": 1
  }
}